:100000000C945D000C9485000C9485000C94850084
:100010000C9485000C9485000C9485000C9485004C
:100020000C9485000C9485000C9485000C94230E90
:100030000C9485000C9485000C9485000C9485002C
:100040000C94BA0C0C9485000C94880C0C94620CE3
:100050000C9485000C9485000C9485000C9485000C
:100060000C94040D0C94850000000000240027006F
:100070002A0000000000250028002B0004040404CE
:100080000404040402020202020203030303030342
:10009000010204081020408001020408102001021F
:1000A00004081020000000080002010000030407FB
:1000B0000000000000000000330F11241FBECFEF2E
:1000C000D8E0DEBFCDBF11E0A0E0B1E0E2ECFDE2A0
:1000D00002C005900D92AE36B107D9F724E0AEE626
:1000E000B1E001C01D92AA3AB207E1F710E0CDE5F8
:1000F000D0E004C02197FE010E94A515CC35D107A0
:10010000C9F70E94B30F0C94DF160C9400000895F9
:100110000895AF92BF92CF92DF92EF92FF920F932A
:100120001F93CF93DF936C017B018B01040F151F8D
:10013000EB015E01AE18BF08C017D10759F06991F5
:10014000D601ED91FC910190F081E02DC601099559
:10015000892B79F7C501DF91CF911F910F91FF9006
:10016000EF90DF90CF90BF90AF900895FC01538D3A
:10017000448D252F30E0842F90E0821B930B541781
:1001800010F0CF96089501970895FC01918D828D0E
:10019000981761F0A28DAE0FBF2FB11D5D968C91A7
:1001A000928D9F5F9F73928F90E008958FEF9FEFE6
:1001B0000895FC01918D828D981731F0828DE80FA2
:1001C000F11D858D90E008958FEF9FEF0895FC015C
:1001D000918D228D892F90E0805C9F4F821B910929
:1001E0008F73992708958DE892E00E94E70021E03F
:1001F000892B09F420E0822F089580E090E0892B7C
:1002000029F00E94F30081110C9400000895FC0174
:10021000A48DA80FB92FB11DA35ABF4F2C91848D67
:1002200090E001968F739927848FA689B7892C93C4
:10023000A089B1898C91837080648C93938D848D17
:10024000981306C00288F389E02D80818F7D80831A
:100250000895EF92FF920F931F93CF93DF93EC01DA
:1002600081E0888F9B8D8C8D98131AC0E889F9895D
:10027000808185FF15C09FB7F894EE89FF89608360
:10028000E889F98980818370806480839FBF81E0E1
:1002900090E0DF91CF911F910F91FF90EF90089523
:1002A000F62E0B8D10E00F5F1F4F0F731127E02EFE
:1002B0008C8D8E110CC00FB607FCFACFE889F98936
:1002C000808185FFF5CFCE010E940701F1CFEB8D34
:1002D000EC0FFD2FF11DE35AFF4FF0829FB7F8940A
:1002E0000B8FEA89FB8980818062CFCF682F8DE8F0
:1002F00092E00C942901CF93DF93EC01888D882341
:10030000B9F0AA89BB89E889F9898C9185FD03C078
:10031000808186FD0DC00FB607FCF7CF8C9185FF5D
:10032000F2CF808185FFEDCFCE010E940701E9CF9A
:10033000DF91CF91089590E0FC01EC55FF4F24919F
:10034000FC01E057FF4F3491FC01E458FF4FE4916A
:10035000EE23C9F0222339F0233001F1A8F4213033
:1003600019F1223029F1F0E0EE0FFF1FEE58FF4F98
:10037000A591B4918FB7F894EC91611126C0309596
:100380003E233C938FBF08952730A9F02830C9F051
:10039000243049F7809180008F7D03C080918000D8
:1003A0008F7780938000DFCF84B58F7784BDDBCFDC
:1003B00084B58F7DFBCF8091B0008F778093B000A4
:1003C000D2CF8091B0008F7DF9CF3E2BDACF3FB7EF
:1003D000F8948091DD019091DE01A091DF01B09150
:1003E000E00126B5A89B05C02F3F19F00196A11D7D
:1003F000B11D3FBFBA2FA92F982F8827BC01CD016F
:10040000620F711D811D911D42E0660F771F881FCD
:10041000991F4A95D1F708958F929F92AF92BF92FC
:10042000CF92DF92EF92FF924B015C010E94E701B5
:100430006B017C010E94E7016C197D098E099F09FF
:10044000683E734081059105A8F321E0821A910866
:10045000A108B10888EEC80E83E0D81EE11CF11C8B
:1004600081149104A104B10429F7FF90EF90DF906B
:10047000CF90BF90AF909F908F900895CF93DF93D0
:10048000EC012881222349F00E94E7016D837E83DD
:100490008F839887DF91CF9108952FB7F89440917B
:1004A000D9015091DA016091DB017091DC012FBF1D
:1004B0004D835E836F837887EDCF2F923F924F926B
:1004C0005F926F927F928F929F92AF92BF92CF92E4
:1004D000DF92EF92FF920F931F93CF93DF9300D0A1
:1004E00000D000D0CDB7DEB79E838D838C010A5932
:1004F0001F4FD8018C91882309F4DCC10E94E701C9
:10050000AB01BC01F80185819681A781B0854817B0
:1005100059076A077B0708F0D9C16C017D01C094B7
:10052000D094E094F0944C0D5D1D6E1D7F1D4183B1
:10053000528363837483F8014181528163817481A2
:10054000C184D284E384F4844C155D056E057F0577
:1005500008F497C18C0D9D1DAE1DBF1D858396832C
:10056000A783B087ED81FE81EE59FF4F8081918195
:10057000019709F086C1AD81BE81DC968D909D907A
:10058000AD90BC90DF978D01085B1F4FF801808212
:100590009182A282B382CB01BA010E94701420E042
:1005A00030E04AE754E40E94C8132B013C01ED817E
:1005B000FE81E05CFF4F20813181428153810E94A6
:1005C00027156B017C012D803E80FCE42F0E311C31
:1005D000D101CD92DD92ED92FC921397A30192018D
:1005E000ED81FE81EC5BFF4F60817181828193819F
:1005F0000E94C813ED81FE81E05BFF4FFC83EB831B
:100600006083718382839383ED81FE81EC59FF4F78
:100610002081318121303105E1F4B7FAB094B7F887
:10062000B094F80180829182A282B382F7FAF094AA
:10063000F7F8F094D101CD92DD92ED92FC921397F0
:10064000AB01BC017058EB81FC8140835183628314
:100650007383AD81BE819C968D909D90AD90BC9032
:100660009F97FD0180AE91AEA2AEB3AE80A591A5DD
:10067000A2A5B3A584AB95ABA6ABB7AB44A055A0E0
:1006800066A077A0DF0140AA51AA62AA73AA0280DD
:10069000F381E02DFA83E983208131814281538106
:1006A0009C962D933D934D935C939F971696ED9159
:1006B000FC9117976081718182819381FD0160A710
:1006C00071A782A793A70E9456136B017C01AD818D
:1006D000BE819496CD92DD92ED92FC929797A50102
:1006E0009401E981FA8160817181828193810E9404
:1006F00056134B015C01ED81FE81E05AFF4F808172
:1007000091812D813E812C5A3F4F3A832983009756
:1007100009F0E1C0A7019601D8016D917D918D91FD
:100720009C910E942715E981FA81608371838283FD
:100730009383A7019601C301B2010E94571320E0E1
:1007400030E040E05FE30E942715D1012D913D91FB
:100750004D915C910E9427154D805E80B8E54B0E4F
:10076000511CF20120813181428153810E94571333
:100770003B016C01AD81BE815896EC90589759961B
:10078000FC9059975A960C915A975B961C91970139
:10079000A8010E94C31387FD10C0ED81FE81E4888B
:1007A000F588068917899701A801B301C6010E943F
:1007B0002215181614F073018601C701D801F20141
:1007C00080839183A283B383AB81BC816D917D9142
:1007D0008D919C919058A50194010E9427154B0181
:1007E0005C01ED81FE81E45AFF4F80829182A282FA
:1007F000B382E981FA812081318142815381AD81C7
:10080000BE8118966D917D918D919C911B970E9450
:1008100057139701A8010E945713A50194010E9444
:1008200057135B016C01ED81FE81E088F18802893C
:1008300013899701A8010E94C31387FD17C0AD81DA
:10084000BE811C96EC901C971D96FC901D971E96E1
:100850000C911E971F961C919701A801B501C60126
:100860000E942215181614F075018601AD81BE8113
:100870001496ED91FC91C701D80180839183A283E6
:10088000B38326960FB6F894DEBF0FBECDBFDF91BF
:10089000CF911F910F91FF90EF90DF90CF90BF907D
:1008A000AF909F908F907F906F905F904F903F9010
:1008B0002F9008958FB7F8944091D9015091DA01A3
:1008C0006091DB017091DC018FBF1CCE481B590B7E
:1008D0006A0B7B0B2CCE019709F02BCFD8016D91C1
:1008E0007D918D919C919058A50194011ACFFC01A6
:1008F00014A215A216A217A210A611A612A613A63C
:1009000014A615A616A617A610AA11AA12AA13AA0B
:1009100014AA15AA16AA17AA10AE11AE12AE13AEDB
:10092000DC01AC5ABF4F1D921D921D921C92139771
:1009300014961D921D921D921C92139714961D924F
:100940001D921D921C9213978A599F4F0C943E0240
:100950002F923F924F925F926F927F928F929F92CF
:10096000AF92BF92CF92DF92EF92FF920F931F93BD
:10097000CF93DF9300D0CDB7DEB73C01F8018F896C
:10098000988D9A838983098D1A8DD30113967C9350
:100990006E93129715965C934E93149717963C930B
:1009A0002E931697208031804280538020E030E0E3
:1009B000A901C201B1010E94221587FD35C020E0C6
:1009C00030E0A901F70160817181828193810E94E9
:1009D000221587FD29C020E030E0A901D6016D91E4
:1009E0007D918D919C910E94221587FD1DC0F30180
:1009F00024AE35AE46AE57AEF70180819181A2811B
:100A0000B381F301E05CFF4F80839183A283B383C2
:100A1000F60180819181A281B381F301EC5BFF4FEC
:100A200080839183A283B383D5018D919C91F3013F
:100A3000E05AFF4F91838083F80180819181A281E8
:100A4000B381F30180879187A287B387D4018D9109
:100A50009C91EC59FF4F9183808383010E591F4F66
:100A6000F80180819181019719F4C3010E947704F4
:100A7000A981BA814D915C9170E060E0C3018A590F
:100A80009F4FFC01108241875287638774870E94C1
:100A90003E02C3010E947704F80180819181019791
:100AA000D9F081E090E091838083C3010F900F9093
:100AB000DF91CF911F910F91FF90EF90DF90CF903A
:100AC000BF90AF909F908F907F906F905F904F906E
:100AD0003F902F900C9477040F900F90DF91CF915F
:100AE0001F910F91FF90EF90DF90CF90BF90AF904C
:100AF0009F908F907F906F905F904F903F902F903E
:100B00000895089508952091B501260F3327331FC6
:100B100021323105ECF420916302FC0190E080E089
:100B2000243069F082E00895A091B5012191AC01D3
:100B30004B565E4FA40FB52FB11D2C93019686170F
:100B400098F38091B501680F6093B50180E0089536
:100B500081E008951092630281E080936202109216
:100B60003D0261E082E10E949B0161E083E10E941D
:100B70009B01E9EBF0E080818E7F808380818D7F17
:100B8000808388E48093B80085E48093BC00089556
:100B9000CF93DF9391E0909394018823B9F0C091B3
:100BA000B800D091BA008091BC008A7B8093BC00D1
:100BB00060E082E10E949B0160E083E10E949B0172
:100BC0000E94AA05D093BA00C093B800DF91CF91DC
:100BD00008958F929F92AF92BF92CF92DF92EF9241
:100BE000FF920F931F93CF93DF93D0918C02D1325A
:100BF00008F0D7C0182FC0918B020E94E7016B014B
:100C00007C018091630281116BC082E0809363025A
:100C1000109362028FEF8093610210926002D09372
:100C20005F02ABE6B2E0EFE3F2E080E0D81391C000
:100C300010923E0280913E02CC0FC82BC0933E0220
:100C400080913D02813009F088C010923D020E94DF
:100C5000E7016B017C0180913E028093BB00809193
:100C6000650290916602A0916702B0916802892B9B
:100C70008A2B8B2BA1F00E94E70100916502109155
:100C8000660220916702309168026C197D098E0915
:100C90009F09061717072807390708F442C08091F3
:100CA000BC0083FDD8CF85EC8093BC000E94E70197
:100CB0006B017C0180916302823009F450C0809105
:100CC00061028F3F09F46FC080916102803209F4A4
:100CD0006CC080916102803309F469C084E026C051
:100CE0008091650290916602A0916702B0916802BE
:100CF000892B8A2B8B2B09F484CF0E94E7018090EB
:100D0000650290906602A0906702B09068026C192C
:100D10007D098E099F0986169706A806B90608F070
:100D200070CF809164020E94C80585E010926A022B
:100D300010928C0210926902DF91CF911F910F9156
:100D4000FF90EF90DF90CF90BF90AF909F908F90EB
:100D500008959D9191938F5F69CF85EEA5CF809186
:100D6000650290916602A0916702B0916802892B9A
:100D70008A2B8B2B09F49ECF0E94E701009165021C
:100D80001091660220916702309168026C197D090A
:100D90008E099F09061717072807390708F08ACF19
:100DA000C0CF81E0C3CF80E0C1CF82E0BFCF83E07E
:100DB000BDCF1F93CF93DF93EA01122FDC01119671
:100DC0008D919C91DC01ED91FC910280F381E02DED
:100DD0000995C817D90729F4812F0E94E90591E0E8
:100DE000811190E0892FDF91CF911F910895CF93CA
:100DF000DF93EC018B818823A1F0888191E09093AF
:100E0000690280938B0210926A0210928C0281E038
:100E10000E94E90591E0811190E0892FDF91CF9147
:100E2000089510921C0210921B0210926A021092F6
:100E30008C020E94AA0587E890E09093E2018093DB
:100E4000E10188E890E09093E4018093E30181E080
:100E50008B83CE010E94F706982F8111CECFDDCF74
:100E60000895E0911C0280911B02E81730F4F0E035
:100E7000E35EFD4F808190E008958FEF9FEF08952E
:100E800090911C0280911B022FEF3FEF981748F4BE
:100E9000E92FF0E0E35EFD4F208130E09F5F90930B
:100EA0001C02C901089580911B0290911C02891BAC
:100EB000990B0895CF92DF92EF92FF920F931F93B9
:100EC000CF93DF937C01CB018A0120916902222319
:100ED00089F0EB016B01C40ED51ECC15DD0569F060
:100EE0006991D701ED91FC910190F081E02DC7014E
:100EF0000995F3CF642F0E948305C801DF91CF913C
:100F00001F910F91FF90EF90DF90CF900895CF93B6
:100F1000DF931F92CDB7DEB7698320916902222348
:100F2000F9F020918C02203258F021E030E0FC01F1
:100F30003383228390E080E00F90DF91CF9108957A
:100F400080916A02E82FF0E0E559FD4F9981908386
:100F50008F5F80936A0280938C0281E090E0ECCFF7
:100F600061E0CE0101960E948305F7CF90E080E01A
:100F70000895DC01EC91EC3090F511968C9111976D
:100F800028E830E0281B310987FD3395220F331FF5
:100F9000220F331F6217730784F012968C9128E595
:100FA00032E0281B310987FD3395220F331F220FB2
:100FB000331F621773070CF49B0122503109220F73
:100FC000331F4FB7F8948E2F90E0FC01EE0FFF1FF8
:100FD000E80FF91FE059FE4F328321834FBF089578
:100FE000CF93DF93DC018C918C3008F06DC0CB0186
:100FF000FB01E057FF4F249184589F4FFC018491DF
:10100000882399F090E0880F991FFC01E859FF4F61
:10101000C591D491FC01EE58FF4F859194918FB703
:10102000F894E881E22BE8838FBF8C91282F30E081
:10103000F901EE0FFF1FE20FF31FE059FE4F962F4D
:101040009F736081607C692B608311961C9211975D
:1010500012961C9212972CE0622F0E949915829F83
:10106000B001112430E020E0AB01420F531FFA0120
:10107000EE0FFF1FE40FF51FE059FE4F908196FD24
:1010800016C02F5F3F4F2C30310571F781110FC013
:101090001092800082E0809381001092850010926F
:1010A0008400B19A80916F00826080936F00EC9110
:1010B0008E2F90E0FC01EE0FFF1FE80FF91FE059A3
:1010C000FE4F8081806480838C91DF91CF91089561
:1010D000CF93DF9300D0CDB7DEB789836A83809149
:1010E000390390913A03FC01248135812230310586
:1010F000B8F0208131E03093690220938B02109286
:101100006A0210928C0221E042E050E0BE016F5F63
:101110007F4F0E94D9060F900F90DF91CF910895D5
:1011200080E0F9CFE6E3F3E081879287682F8DE3D3
:1011300090E00E9468086EE170E080E090E00C941E
:101140000C022F923F924F925F926F927F928F92FA
:101150009F92AF92BF92CF92DF92EF92FF920F9346
:101160001F93CF93DF93DC011496ED91FC911597BB
:10117000EF2B09F412C169012A01EC01888191E089
:101180009093690280938B0210926A0210928C02F3
:1011900020E041E050E0CD010E94D906782E88235E
:1011A00009F4FBC0F12CE12C33243394EC14FD043E
:1011B00008F0F4C08C819D8186010E191F098017EB
:1011C000910708F48C0128800E94E7014B015C0123
:1011D00080916302811173C0602EB0E2B01710F4E9
:1011E00080E2682E3092630221E0C601801B910BE1
:1011F000E816F90608F420E020936202EFEFE0938E
:101200006102109260028FEF860D80935F02309230
:101210003E0280913E02220C282A20923E028091BA
:101220003D02813009F090C010923D020E94E7011A
:101230004B015C0180913E028093BB00809165026E
:1012400090916602A0916702B0916802892B8A2B67
:101250008B2BA1F00E94E70120916502309166027C
:101260004091670250916802681979098A099B09BF
:10127000261737074807590708F442C08091BC0079
:1012800083FDD8CFF5ECF093BC000E94E7014B0141
:101290005C0180916302813009F45AC08091600240
:1012A000861510F460906002AFE3B2E0EDE1F2E089
:1012B00080E0861551F19D9191938F5FFACF8091D7
:1012C000650290916602A0916702B0916802892B35
:1012D0008A2B8B2B09F47CCF0E94E70120916502B9
:1012E000309166024091670250916802681979094D
:1012F0008A099B09261737074807590708F068CF5E
:10130000809164020E94C805612C10921C026092B8
:101310001B026016110609F040C042018E0C9F1C92
:101320005401C501881999098017910798F5898199
:101330009A81DC01ED91FC910284F385E02D099501
:10134000F50181935F01EDCF85EE8093BC009DCFC9
:101350008091650290916602A0916702B091680247
:10136000892B8A2B8B2B09F494CF0E94E7012091C3
:1013700065023091660240916702509168026819D7
:1013800079098A099B09261737074807590708F082
:1013900080CFB6CFE00EF11E09CF712C872DDF91E3
:1013A000CF911F910F91FF90EF90DF90CF90BF9062
:1013B000AF909F908F907F906F905F904F903F90F5
:1013C0002F900895CF93DF931F92CDB7DEB7198288
:1013D00021E030E0AE014F5F5F4FBA0180913903E9
:1013E00090913A030E94A10889810F90DF91CF91DB
:1013F0000895FC0101900020E9F73197AF01481BE7
:10140000590BBC018DE892E00C9489008F929F9259
:10141000AF92BF920F931F93CF93DF93CDB7DEB7F9
:10142000A1970FB6F894DEBF0FBECDBF19A2423010
:1014300008F44AE08E010F5D1F4F842E912CB12CD1
:10144000A12CA50194010E942513E62FB901CA0120
:10145000EA30F4F4E05DD801EE938D01232B242BC8
:10146000252B79F790E080E0109719F0CD010E94CC
:10147000F909A1960FB6F894DEBF0FBECDBFDF917C
:10148000CF911F910F91BF90AF909F908F90089533
:10149000E95CE1CF4F925F926F927F928F929F9221
:1014A000AF92BF92CF92DF92EF92FF920F931F9372
:1014B000CF936B017C01742EAC019B010E949415AB
:1014C000882399F084E491E0CF911F910F91FF90D0
:1014D000EF90DF90CF90BF90AF909F908F907F90D4
:1014E0006F905F904F900C94F90946015701E89472
:1014F000B7F82FEF3FEF4FE75FE7C501B4010E9458
:10150000941581110DC02FEF3FEF4FE75FE7C50145
:10151000B4010E94C31318161CF488E491E0D4CFE0
:101520002FEF3FEF4FE75FE4C701B6010E9422159E
:1015300018161CF48CE491E0C7CF2FEF3FEF4FE774
:101540005FECC701B6010E94C31387FDF3CF20E013
:1015500030E0A901C701B6010E94C31310E000E00A
:1015600087FF08C08DE20E9476018C01F7FAF094A3
:10157000F7F8F094C0E060E070E080E09FE37C1654
:1015800041F020E030E040E251E40E94C813CF5F18
:10159000F6CFA70196010E9457132B013C010E9430
:1015A00041144B015C014AE00E94060A7C01E00EF6
:1015B000F11ECC23B1F1C501B4010E9470149B014E
:1015C000AC01C301B2010E9456134B015C018EE2D3
:1015D0000E947601E80EF91EC15018F120E030E0BB
:1015E00040E251E4C501B4010E9427152B013C01E2
:1015F0000E9441144B01B12CA12C4AE0C501B40159
:101600000E94060AE80EF91EC501B4010E9470147A
:101610009B01AC01C301B2010E9456134B015C0156
:10162000DBCFC701CF911F910F91FF90EF90DF901B
:10163000CF90BF90AF909F908F907F906F905F9072
:101640004F900895CF93DF9344E00E944A0AEC0143
:1016500080E591E00E94F9098C0F9D1FDF91CF91E9
:1016600008950C9447168F929F92AF92BF92CF929B
:10167000DF92EF92FF920F931F93CF93DF93CDB73B
:10168000DEB763970FB6F894DEBF0FBECDBF8B01F8
:10169000FB01349620E2DF011D922A95E9F744E22E
:1016A00050E060E070E0F80140835183628373830F
:1016B000DC0115964D915D916D917C911897448355
:1016C00055836683778343E050E060E070E04087B5
:1016D0005187628773872FB7F8944091D901509151
:1016E000DA016091DB017091DC012FBF408B518BDF
:1016F000628B738B2CE0FE013196DF011D922A95DF
:10170000E9F7AE01435F5F4F26E0FA0111922A9597
:10171000E9F72AE12B8B26E030E0BE016D5E7F4FBA
:10172000DC0113968D919C910E94A1086D857E85A8
:10173000072E000C880B990B0E94721420E030E0F9
:1017400040E85DE30E9427154B015C016F857889B5
:10175000072E000C880B990B0E94721420E030E0D9
:1017600040E85DE30E9427156B017C0169897A8955
:10177000072E000C880B990B0E94721420E030E0B9
:1017800040E85DE30E942715F801848A958AA68ABD
:10179000B78AC08ED18EE28EF38E648F758F868F5E
:1017A000978F81E063960FB6F894DEBF0FBECDBF72
:1017B000DF91CF911F910F91FF90EF90DF90CF902D
:1017C000BF90AF909F908F9008950F931F93CF93EA
:1017D000DF938C01EB0188E2FB0111928A95E9F716
:1017E0004BE050E063E571E0CE010E94D0161B860D
:1017F00081E090E0A0E0B0E08C879D87AE87BF8756
:10180000F80185819681A781B085888B998BAA8BF9
:10181000BB8B83E090E0A0E0B0E08C8B9D8BAE8B27
:10182000BF8B1CA21DA21EA21FA2188E198E1A8E7B
:101830001B8E1C8E1D8E1E8E1F8E8AE097EDA3E2DE
:10184000BCE388A399A3AAA3BBA3DF91CF911F9167
:101850000F91089585ED8093BC0080916502909171
:101860006602A0916702B09168020796A11DB11DA2
:1018700023E0B695A795979587952A95D1F720915E
:10188000BC0024FD03C010926302089540916502DC
:10189000509166026091670270916802452B462B59
:1018A000472B69F30097A105B10541F02AE22A957B
:1018B000F1F700C00197A109B109E1CF809164025D
:1018C0000C94C8051F920F920FB60F9211242F93FC
:1018D0003F934F935F936F937F938F939F93AF93B8
:1018E000BF93EF93FF938DE892E00E940701FF9171
:1018F000EF91BF91AF919F918F917F916F915F9188
:101900004F913F912F910F900FBE0F901F90189500
:101910001F920F920FB60F9211242F938F939F93C4
:10192000EF93FF93E0919D02F0919E028081E09100
:10193000A302F091A40282FD1BC090818091A602B7
:101940008F5F8F732091A702821741F0E091A6026A
:10195000F0E0E357FD4F958F8093A602FF91EF9142
:101960009F918F912F910F900FBE0F901F90189500
:101970008081F4CF1F920F920FB60F9211242F93F4
:101980003F938F939F93AF93BF938091D901909191
:10199000DA01A091DB01B091DC013091D80123E0A4
:1019A000230F2D3758F50196A11DB11D2093D801A5
:1019B0008093D9019093DA01A093DB01B093DC010D
:1019C0008091DD019091DE01A091DF01B091E001F5
:1019D0000196A11DB11D8093DD019093DE01A093BE
:1019E000DF01B093E001BF91AF919F918F913F9143
:1019F0002F910F900FBE0F901F90189526E8230F80
:101A00000296A11DB11DD2CF1F920F920FB60F9259
:101A100011242F933F934F935F936F937F938F93F3
:101A20009F93AF93BF93EF93FF938091B900887F0B
:101A3000803609F44AC0F0F5883209F4A7C018F5D9
:101A4000803109F49BC0B8F4882309F4F9C08830C8
:101A500009F494C0FF91EF91BF91AF919F918F9145
:101A60007F916F915F914F913F912F910F900FBE9A
:101A70000F901F901895883109F488C0803251F773
:101A80008093610214C0803409F49DC040F4803317
:101A9000B9F38833F9F68093610285ECB0C08035E4
:101AA00009F485C0883509F496C0883499F60E94F7
:101AB0002A0CD0CF883909F48CC038F5883729F042
:101AC00050F4883611F0803729F683E08093630262
:101AD0001092D70157C0883809F47BC0803919F0BB
:101AE000803809F0B7CF8091D701803208F071C0FB
:101AF000E091D70181E08E0F8093D7018091BB00E8
:101B0000F0E0E954FE4F80833DC0803B39F0E0F4C3
:101B1000803A09F479C0883A09F09CCF84E0809338
:101B200063021092B6011092B501E091E101F091CB
:101B3000E20109958091B50181110FC081E0809388
:101B4000B5011092950109C0803C09F4A6CF883CEC
:101B500009F4A3CF883B09F07DCFE091B60181E085
:101B60008E0F8093B601F0E0EB56FE4F808180939C
:101B7000BB009091B6018091B50129C080913E02D1
:101B80008093BB0085EC8093BC0064CF9091600291
:101B900080915F02981758F5E091600281E08E0F06
:101BA00080936002F0E0E15CFD4F8081E9CFE0913D
:101BB000600281E08E0F809360028091BB00F0E0B4
:101BC000E15CFD4F80839091600280915F029817E5
:101BD000C8F285E8D8CFE091600281E08E0F809353
:101BE00060028091BB00F0E0E15CFD4F808380915A
:101BF000620281115CCF81E080933D0284EA809390
:101C0000BC001092630226CF85EC8093BC0010923A
:101C100063028091D701803230F4E091D701F0E087
:101C2000E954FE4F10826091D70170E0E091E3012A
:101C3000F091E40187EB91E009951092D7010ACF6A
:101C40001092610234CF1F920F920FB60F9211249F
:101C50002F933F934F935F936F937F938F939F93B4
:101C6000AF93BF93CF93DF93EF93FF9380916E0178
:101C7000C0916F01D0E087FF24C0109285001092C0
:101C8000840080916E018F5F80936E0180916E0160
:101C9000082E000C990B8C179D0724F480916E017F
:101CA0008C30C4F18091840090918500049680343A
:101CB0009C4908F47AC08091840090918500049634
:101CC00076C080916E01082E000C990B8C179D0731
:101CD000C4F6E0916E018E2FEE0F990BFC01EE0F12
:101CE000FF1FE80FF91FE059FE4F808186FFC9CF23
:101CF000E0916E018E2FEE0F990BFC01EE0FFF1F8E
:101D0000E80FF91FE059FE4F808160E08F730E9459
:101D10009B01B7CF2091840030918500E0916E0146
:101D20008E2FEE0F990BFC01EE0FFF1FE80FF91F2E
:101D3000E059FE4F81819281820F931F9093890019
:101D400080938800E0916E018E2FEE0F990BFC01BD
:101D5000EE0FFF1FE80FF91FE059FE4F808186FF4D
:101D600011C0E0916E018E2FEE0F990BFC01EE0F6A
:101D7000FF1FE80FF91FE059FE4F808161E08F736C
:101D80000E949B01FF91EF91DF91CF91BF91AF91A5
:101D90009F918F917F916F915F914F913F912F9183
:101DA0000F900FBE0F901F90189580E49CE99093C0
:101DB0008900809388008FEF80936E01E3CFFC0150
:101DC00090916F019C3098F481E0890F80936F01AE
:101DD0009083892F90E0FC01EE0FFF1FE80FF91FA1
:101DE000E059FE4F88EB9BE09283818308958FEF4B
:101DF00080830895FC018EE091E09183808380E0F0
:101E000090E0AFE7B3E484879587A687B787108A09
:101E1000118A128A138A80E090E0AAE7B4E4848BE6
:101E2000958BA68BB78B80E090E0AAE7B4EC808F0F
:101E3000918FA28FB38F148E158E168E178E10A2CF
:101E400011A212A213A2EA59FF4F1082118212822C
:101E500013821482158216821782108611861286CA
:101E60001386148608950F931F93CF93DF93EDE8A5
:101E7000F2E01382128288EE93E0A0E0B0E0848367
:101E80009583A683B78326E131E03183208325EC57
:101E900030E03587248724EC30E03787268720EC34
:101EA00030E0318B208B21EC30E0338B228B22EC25
:101EB00030E0358B248B26EC30E0378B268B118E6F
:101EC000128E138E148ECAE2D3E01B821A828C8388
:101ED0009D83AE83BF8388E291E09983888383E307
:101EE00094E00E94FA0E80EC93E00E94FA0E8DE4DA
:101EF00093E00E94FA0E8AE493E00E94DF0E87E4EA
:101F000093E00E94DF0E84E493E00E94DF0E81E400
:101F100093E00E94DF0E06E313E08AE391E0D8012C
:101F20008D939C9387E390E0A0E0B0E0F801858377
:101F30009683A783B08786E090E00E94AB15FC01F2
:101F400088E28083D283C183138280E290E095830C
:101F50008483D8011496FC93EE931397DF91CF916D
:101F60001F910F910895CF93DF93CDB7DEB7AA9756
:101F70000FB6F894DEBF0FBECDBF789484B58260F3
:101F800084BD84B5816084BD85B5826085BD85B51D
:101F9000816085BD80916E00816080936E0010929B
:101FA0008100809181008260809381008091810016
:101FB00081608093810080918000816080938000A7
:101FC0008091B10084608093B1008091B000816005
:101FD0008093B00080917A00846080937A00809131
:101FE0007A00826080937A0080917A008160809389
:101FF0007A0080917A00806880937A001092C10004
:1020000065E070E08AE493E00E94F00768EE73E018
:102010008AE493E00E94B90766E070E087E493E009
:102020000E94F00768EE73E087E493E00E94B9072E
:1020300067E070E084E493E00E94F00768EE73E0EC
:1020400084E493E00E94B90768E070E081E493E0E3
:102050000E94F00768EE73E081E493E00E94B90704
:10206000E0919D02F0919E0282E08083E0919902CE
:10207000F0919A021082E0919B02F0919C028FEC09
:1020800080831092A502E091A102F091A20286E065
:102090008083E0919F02F091A00280818061808323
:1020A000E0919F02F091A002808188608083E0919E
:1020B0009F02F091A002808180688083E0919F025E
:1020C000F091A00280818F7D808319821A821B8209
:1020D0001C821EA21DA218A61FA21AA619A69E0146
:1020E0002F5F3F4F39013F932F932E0135E2430E6F
:1020F000511C5F924F92CE0187964C01FE01B9961A
:102100005F0195EEC92E91E0D92E29EEE22E21E055
:10211000F22E00E011E02DEE31E043E152E067E104
:1021200072E083E394E00E94A80419821A821B8261
:102130001C821EA21DA218A61FA21AA619A67F9273
:102140006F925F924F922DEE31E04BE052E06FE0E4
:1021500072E080EC93E00E94A80419821A821B822C
:102160001C821EA21DA218A61FA21AA619A67F9243
:102170006F925F924F922DEE31E043E052E067E0C4
:1021800072E08DE493E00E94A8040091390310915D
:102190003A0310921C0210921B0210926A021092D3
:1021A0008C020E94AA0587E890E09093E201809358
:1021B000E10188E890E09093E4018093E30181E0FD
:1021C000F8018383C8010E94F7060FB6F894DEBFBA
:1021D0000FBECDBF882331F10E94E209803AC1F4DD
:1021E00090E080E00E94920860E28FE390E00E941D
:1021F00068086EE170E080E090E00E940C020E94AE
:10220000E209803AA1F06AE070E080E090E0F5CF6A
:1022100068EE73E080E090E00E940C020E94E20908
:10222000803AF1F28AE591E00E94F909FFCF62E37A
:1022300070E080E090E00E940C0260E08EE390E0AD
:102240000E9468086AE070E080E090E00E940C0262
:1022500060E087E090E00E94680860E08FE390E033
:102260000E9468086AE070E080E090E00E940C0242
:102270008CE090E00E94920864E170E080E090E0E1
:102280000E940C0264E670E080E090E00E940C0284
:1022900000913F031091400390E080E00E9492087B
:1022A00069E170E080E090E00E940C0260E087E06D
:1022B00090E00E94680860E88FE390E00E94680860
:1022C0006AE070E080E090E00E940C02C8010E9489
:1022D000920864E170E080E090E00E940C02812CA2
:1022E000912C54018A94B30186E393E00E94330B4E
:1022F00001EF11E078018DE892E00E94E700892B60
:1023000079F08DE892E00E94C500805C282F082EAD
:10231000000C330BF701219331937F018E3559F770
:10232000F80160810E5F1F4F8DE892E00E94290145
:1023300021E032E02017310799F781E591E00E9412
:10234000F909CD8CDE8CEF8CF8A020E030E0A901FB
:10235000C701B6010E942215D70118160CF02DC135
:10236000C601B0588093170290931802A0931902E7
:10237000B0931A0283E394E00E945D02609113021D
:1023800070911402809115029091160242E00E9411
:102390004A0A8CE20E947601C701B6010E94220B14
:1023A00060911302709114028091150290911602AF
:1023B0000E943A149B01AC01A8EEB3E00E941A13EC
:1023C000A50194010E94FB1219012A0188EE280E32
:1023D00083E0381E411C511C3092020220920102FF
:1023E00020E030E0A901C701B6010E942215B10129
:1023F00018160CF0E4C08AE493E00E94B907B1011A
:1024000087E493E00E94B907298C3A8C4B8C5C8C52
:1024100020E030E0A901C201B1010E942215D201E1
:1024200018160CF0D4C0C101B05880930F029093DD
:102430001002A0931102B093120280EC93E00E946C
:102440005D0260910B0270910C0280910D029091DF
:102450000E0242E00E944A0A8CE20E947601C70105
:10246000B6010E94220B60910B0270910C028091C8
:102470000D0290910E020E943A149B01AC01A8EE4D
:10248000B3E00E941A13A50194010E94FB12690196
:102490007A0198EEC90E93E0D91EE11CF11CD0928E
:1024A0000202C092010220E030E0A901C201B101A4
:1024B0000E942215B60118160CF08BC087E493E039
:1024C0000E94B907B60184E493E00E94B9072D8801
:1024D0003E884F88588C20E030E0A901C201B1014C
:1024E0000E942215D20118160CF07BC0C101B05811
:1024F0008093070290930802A0930902B0930A0206
:102500008DE493E00E945D026091030270910402E9
:10251000809105029091060242E00E944A0A8CE2F4
:102520000E947601C201B1010E94220B6091030258
:102530007091040280910502909106020E943A1463
:102540009B01AC01A8EEB3E00E941A13A50194010F
:102550000E94FB1269017A01E8EECE0EE3E0DE1E76
:10256000E11CF11CD0920202C092010220E030E096
:1025700044E353E4C201B1010E94C313B60187FFD3
:1025800032C08AE493E00E94B907B60184E493E084
:102590000E94B90728EE33E0309302022093010233
:1025A00080E090E0892B09F49ECE0E94F3008823FE
:1025B00009F499CE0E94000096CEC601D3CE84E4E1
:1025C00093E00E94B907B10181E493E01BCFC10100
:1025D0002CCF8AE493E00E94B907B60181E493E02E
:1025E00074CFC10185CF87E493E00E94B907B6019B
:1025F00081E493E0CDCF052E97FB1EF400940E945A
:10260000121357FD07D00E94251307FC03D04EF488
:102610000C94121350954095309521953F4F4F4F94
:102620005F4F089590958095709561957F4F8F4F7E
:102630009F4F08950E944713A59F900DB49F900D42
:10264000A49F800D911D11240895A1E21A2EAA1BAA
:10265000BB1BFD010DC0AA1FBB1FEE1FFF1FA21752
:10266000B307E407F50720F0A21BB30BE40BF50B4F
:10267000661F771F881F991F1A9469F760957095D8
:10268000809590959B01AC01BD01CF010895A29F5B
:10269000B001B39FC001A39F700D811D1124911D36
:1026A000B29F700D811D1124911D08955058BB27B4
:1026B000AA270E946E130C94E8140E94DA1438F0D2
:1026C0000E94E11420F039F49F3F19F426F40C9491
:1026D000D7140EF4E095E7FB0C94D114E92F0E9477
:1026E000F91458F3BA17620773078407950720F0A7
:1026F00079F4A6F50C941B150EF4E0950B2EBA2F69
:10270000A02D0B01B90190010C01CA01A0011124F7
:10271000FF27591B99F0593F50F4503E68F11A16A3
:10272000F040A22F232F342F4427585FF3CF469534
:1027300037952795A795F0405395C9F77EF41F1656
:10274000BA0B620B730B840BBAF09150A1F0FF0F20
:10275000BB1F661F771F881FC2F70EC0BA0F621F0C
:10276000731F841F48F4879577956795B795F795FC
:102770009E3F08F0B0CF9395880F08F09927EE0F91
:102780009795879508950E94AD1408F481E0089507
:102790000E94DC130C94E8140E94E11458F00E948B
:1027A000DA1440F029F45F3F29F00C94D114511150
:1027B0000C941C150C94D7140E94F91468F39923F7
:1027C000B1F3552391F3951B550BBB27AA2762172D
:1027D0007307840738F09F5F5F4F220F331F441F3A
:1027E000AA1FA9F335D00E2E3AF0E0E832D091506E
:1027F0005040E695001CCAF72BD0FE2F29D0660F5B
:10280000771F881FBB1F261737074807AB07B0E89D
:1028100009F0BB0B802DBF01FF2793585F4F3AF0A3
:102820009E3F510578F00C94D1140C941C155F3F19
:10283000E4F3983ED4F3869577956795B795F79529
:102840009F5FC9F7880F911D9695879597F9089511
:10285000E1E0660F771F881FBB1F621773078407AD
:10286000BA0720F0621B730B840BBA0BEE1F88F7BC
:10287000E09508950E9441146894B1110C941C15C0
:1028800008950E94011588F09F5798F0B92F992755
:10289000B751B0F0E1F0660F771F881F991F1AF04B
:1028A000BA95C9F714C0B13091F00E941B15B1E080
:1028B00008950C941B15672F782F8827B85F39F07F
:1028C000B93FCCF3869577956795B395D9F73EF4E4
:1028D00090958095709561957F4F8F4F9F4F08958C
:1028E000E89409C097FB3EF49095809570956195AA
:1028F0007F4F8F4F9F4F9923A9F0F92F96E9BB2760
:102900009395F695879577956795B795F111F8CFDB
:10291000FAF4BB0F11F460FF1BC06F5F7F4F8F4F46
:102920009F4F16C0882311F096E911C0772321F03C
:102930009EE8872F762F05C0662371F096E8862FD4
:1029400070E060E02AF09A95660F771F881FDAF72B
:10295000880F9695879597F90895990F0008550F58
:10296000AA0BE0E8FEEF16161706E807F907C0F015
:1029700012161306E407F50798F0621B730B840B1D
:10298000950B39F40A2661F0232B242B252B21F4F7
:1029900008950A2609F4A140A6958FEF811D811D97
:1029A000089597F99F6780E870E060E008959FEFD1
:1029B00080EC089500240A941616170618060906D6
:1029C000089500240A9412161306140605060895A5
:1029D000092E0394000C11F4882352F0BB0F40F42D
:1029E000BF2B11F460FF04C06F5F7F4F8F4F9F4F6D
:1029F000089557FD9058440F551F59F05F3F71F0EF
:102A00004795880F97FB991F61F09F3F79F0879555
:102A10000895121613061406551FF2CF4695F1DFDE
:102A200008C0161617061806991FF1CF869571056E
:102A3000610508940895E894BB2766277727CB01A2
:102A400097F908950E94AD1408F48FEF08950E943D
:102A50003A150C94E8140E94DA1438F00E94E1143C
:102A600020F0952311F00C94D1140C94D714112458
:102A70000C941C150E94F91470F3959FC1F3950FE7
:102A800050E0551F629FF001729FBB27F00DB11DF2
:102A9000639FAA27F00DB11DAA1F649F6627B00D82
:102AA000A11D661F829F2227B00DA11D621F739F6B
:102AB000B00DA11D621F839FA00D611D221F749F79
:102AC0003327A00D611D231F849F600D211D822FC0
:102AD000762F6A2F11249F5750409AF0F1F08823E7
:102AE0004AF0EE0FFF1FBB1F661F771F881F915014
:102AF0005040A9F79E3F510580F00C94D1140C94DE
:102B00001C155F3FE4F3983ED4F38695779567955F
:102B1000B795F795E7959F5FC1F7FE2B880F911D3D
:102B20009695879597F908950E94AD14880B990B97
:102B30000895991B79E004C0991F961708F0961B19
:102B4000881F7A95C9F780950895EE0FFF1F0590AD
:102B5000F491E02D09940F931F93CF93DF9382306C
:102B6000910510F482E090E0E091A804F091A904AE
:102B700030E020E0B0E0A0E0309799F42115310575
:102B800009F44AC0281B390B24303105D8F58A8155
:102B90009B816115710589F1FB0193838283FE019D
:102BA00011C0408151810281138148175907E0F01B
:102BB0004817590799F4109761F012960C931297E1
:102BC00013961C933296CF01DF91CF911F910F91F5
:102BD00008950093A8041093A904F4CF211531059A
:102BE00051F04217530738F0A901DB019A01BD01EA
:102BF000DF01F801C1CFEF01F9CF9093A9048093D1
:102C0000A804CDCFFE01E20FF31F819391932250D0
:102C1000310939832883D7CF2091A6043091A704A6
:102C2000232B41F420910601309107013093A70432
:102C30002093A6042091040130910501211531054E
:102C400041F42DB73EB74091080150910901241B72
:102C5000350BE091A604F091A704E217F307A0F466
:102C60002E1B3F0B2817390778F0AC014E5F5F4FE2
:102C70002417350748F04E0F5F1F5093A704409369
:102C8000A604819391939FCFF0E0E0E09CCFCF9397
:102C9000DF930097E9F0FC01329713821282A09132
:102CA000A804B091A904ED0130E020E01097A1F450
:102CB00020813181820F931F2091A6043091A704B7
:102CC0002817390709F061C0F093A704E093A60420
:102CD000DF91CF910895EA01CE17DF07E8F54A8129
:102CE0005B819E0141155105B1F7E901FB83EA8340
:102CF00049915991C40FD51FEC17FD0761F48081EC
:102D000091810296840F951FE901998388838281BE
:102D100093819B838A83F0E0E0E012968D919C91F1
:102D200013970097B9F52D913C911197CD0102961B
:102D3000820F931F2091A6043091A704281739070A
:102D400039F6309751F51092A9041092A804B09367
:102D5000A704A093A604BCCFD383C2834081518132
:102D6000840F951FC817D90761F44E5F5F4F8881A4
:102D70009981480F591F518340838A819B81938396
:102D800082832115310509F0B0CFF093A904E093B7
:102D9000A8049ECFFD01DC01C0CF13821282D7CFE1
:102DA000FB01DC014150504048F001900D920020A1
:102DB000C9F701C01D9241505040E0F70895F894C2
:022DC000FFCF43
:102DC2000000803F0000AA04800000000000A80468
:102DD2005D020000000029018900B6007B01E700C6
:102DE200C500D9000000000087075A07B607300760
:102DF200530740073107000000008105310B8205AF
:102E0200330BE50B6E616E00696E66006F766600CD
:102E12000D0A00424E4F303535004E6F20424E4F64
:0E2E2200303535206465746563746564210085
:107E0000112484B714BE81FFF0D085E080938100F7
:107E100082E08093C00088E18093C10086E0809377
:107E2000C20080E18093C4008EE0C9D0259A86E02C
:107E300020E33CEF91E0309385002093840096BBD3
:107E4000B09BFECF1D9AA8958150A9F7CC24DD24C4
:107E500088248394B5E0AB2EA1E19A2EF3E0BF2EE7
:107E6000A2D0813461F49FD0082FAFD0023811F036
:107E7000013811F484E001C083E08DD089C08234E0
:107E800011F484E103C0853419F485E0A6D080C0E4
:107E9000853579F488D0E82EFF2485D0082F10E0AE
:107EA000102F00270E291F29000F111F8ED06801E7
:107EB0006FC0863521F484E090D080E0DECF843638
:107EC00009F040C070D06FD0082F6DD080E0C81688
:107ED00080E7D80618F4F601B7BEE895C0E0D1E017
:107EE00062D089930C17E1F7F0E0CF16F0E7DF06D8
:107EF00018F0F601B7BEE89568D007B600FCFDCFD4
:107F0000A601A0E0B1E02C9130E011968C91119780
:107F100090E0982F8827822B932B1296FA010C0160
:107F200087BEE89511244E5F5F4FF1E0A038BF0790
:107F300051F7F601A7BEE89507B600FCFDCF97BE46
:107F4000E89526C08437B1F42ED02DD0F82E2BD052
:107F50003CD0F601EF2C8F010F5F1F4F84911BD097
:107F6000EA94F801C1F70894C11CD11CFA94CF0C13
:107F7000D11C0EC0853739F428D08EE10CD085E9AC
:107F80000AD08FE07ACF813511F488E018D01DD067
:107F900080E101D065CF982F8091C00085FFFCCF94
:107FA0009093C60008958091C00087FFFCCF809118
:107FB000C00084FD01C0A8958091C6000895E0E648
:107FC000F0E098E1908380830895EDDF803219F02E
:107FD00088E0F5DFFFCF84E1DECF1F93182FE3DFCA
:107FE0001150E9F7F2DF1F91089580E0E8DFEE27F6
:047FF000FF270994CA
:027FFE00040479
:0400000300007E007B
:00000001FF
